:020000040800F2
:10000000000001205D00000800000000F100000871
:100010000000000000000000950000080000000043
:100020000000000000000000000000005101000876
:100030000000000000000000000000008501000832
:1000400000000000000000000000000000000000B0
:100050000000000000000000A100000800F0B0F85F
:1000600000F08EFA00F0D2F84FF000004FF011319E
:100070004FF022324FF033334FF0443C4FF0553EB7
:10008000FFFFFFFF01DF00F071F800F051F862B6EA
:1000900002488047684600F0C1B800BF99030008D5
:1000A00010B5094C207800F0010018B907A000F045
:1000B0005BFA02E009A000F057FA002000F010F906
:1000C000062000F0FDF910BD080801404B455931EC
:1000D0002070726573736564210A0D004B455931B8
:1000E0002072656C6561736564210A0D0000000073
:1000F00002A000F039FA00BFFEE700004861726418
:100100004661756C745F48616E646C65720A0D00BF
:100110000146064821B1026822F00102026003E0B4
:10012000026842F001020260704700000C0C0140BE
:100130000548016841F0080101600448016841F088
:10014000010101607047000018100240000C0140DE
:1001500010B502A000F008FA10BD00005356435F2E
:1001600048616E646C65720A0D0000000348044922
:1001700081604160072101607047000010E000E0ED
:1001800000127A0010B50C4C0C48006818B1002021
:10019000FFF7BEFF02E00120FFF7BAFF0748006843
:1001A00008B9012000E0002004490860606840F0C0
:1001B0000070606010BD000000ED00E00400002051
:1001C00010B50A480A49884202D00A4A00F0CCF821
:1001D00009480A49884202D0094A00F0C5F8094A8C
:1001E0000021094800F0CDF810BD00000000000813
:1001F00000000008D405000000000020D40500081D
:100200000800000058000000080000200248416A71
:1002100041F480214162704700ED00E070B5044672
:10022000144D15A000F0A0F919A0216800F05EF9A6
:1002300019A0616800F05AF919A0A16800F056F9F8
:1002400019A0E16800F052F919A0216900F04EF9F7
:1002500019A0616900F04AF919A0A16900F046F9F6
:1002600019A0E16900F042F9A86AA862A069001D1E
:10027000A06170BD00ED00E0557361676546617572
:100280006C745F48616E646C65720A0D000000005A
:10029000523020203D200000523120203D2000001F
:1002A000523220203D200000523320203D2000000B
:1002B000523132203D2000004C5220203D200000D1
:1002C000504320203D200000785053523D20000034
:1002D00001B500BF0098411E00910028FAD108BD69
:1002E00003494A69012383401A434A617047000069
:1002F000000401400648816841F001018160C16845
:1003000041F00101C160016841F0010101607047E5
:1003100000040140044900BF086800F020000028E4
:10032000FAD0486870470000003801400B490C4A79
:10033000136843F00C0313600A48036823F00303B7
:100340000360036823F00C030360036843F00403B5
:1003500003608B6823F00F038B607047000001403F
:10036000181002400008014070B503460C4603E037
:1003700025781D70641C5B1C151EA2F10102F7D1CB
:1003800070BD30B5034601E019705B1C141EA2F16C
:100390000102F9D130BD0000274DFFF7C7FFFFF77D
:1003A000A9FF00F09BF80120FFF792FF312000F039
:1003B000ADF8302000F0AAF8302000F0A7F8612056
:1003C00000F0A4F8732000F0A1F86B2000F09EF874
:1003D0000A2000F09BF80D2000F098F87B2117A070
:1003E000A8471C491CA000F081F8204920A000F07B
:1003F0007DF82448016824A000F078F826480178A8
:1004000026A000F073F82948016829A000F06EF8D2
:100410001048007800F07AF8422000F077F809E000
:10042000FFF778FFC4B2204600F070F8611CC8B234
:1004300000F06CF8F4E70000ED04000874657374D4
:1004400020666F7220746578742072656C6F6361CA
:100450007465200000000020675F436861722773A5
:10046000206164647220203D20000000D005000857
:10047000675F436861723227732061646472203D54
:100480002000000008000020675F415B305D27739B
:100490002076616C203D200014000020675F425BE5
:1004A000305D27732076616C203D20002000002005
:1004B000735F435B305D27732076616C203D2000C5
:1004C00005491F2806DCD1F88021012383401A4307
:1004D000C1F880217047000000E100E00248016897
:1004E00041F040010160704700E100E070B5054651
:1004F0000C46284600F038F8204600F013F802A019
:1005000000F032F870BD00000D0A0000044900BF81
:100510000A6802F08002002AFAD0486070470000A2
:100520000038014070B506460EA000F01DF8072502
:1005300014E0A80026FA00F000F00F04002C07DBFE
:10054000092C05DC04F13001C8B2FFF7DFFF04E03D
:1005500004F13701C8B2FFF7D9FF6D1E002DE8DAAC
:1005600070BD00003078000010B5044603E020782C
:10057000FFF7CCFF641C20780028F8D110BD0000E4
:1005800010491148026844F204031A4302600F48FC
:10059000026822F0F0020260026842F090020260FB
:1005A000026822F470620260026842F480620260B3
:1005B00045228A6042F20C02CA600A6922F4405263
:1005C0000A617047003801401810024004080140D9
:0C05D0004200000041000000000000009C
:0400000500000000F7
:00000001FF
