:020000040800F2
:1000000000000000A500000800F002F800F03AF837
:100010000AA090E8000C82448344AAF10107DA4563
:1000200001D100F02FF8AFF2090EBAE80F0013F07B
:10003000010F18BFFB1A43F001031847FC02000030
:100040001C030000103A24BF78C878C1FAD85207C0
:1000500024BF30C830C144BF04680C607047000042
:100060000023002400250026103A28BF78C1FBD8C1
:10007000520728BF30C148BF0B6070471FB51FBD76
:1000800010B510BD00F020F81146FFF7F7FF00F0A3
:1000900081F800F03EF803B4FFF7F2FF03BC00F074
:1000A0005FF80000DFF810D004480549054A00F069
:1000B000C1F800F06FF800000000012000000020EF
:1000C000580300080C000000754600F02BF8AE46FF
:1000D00005006946534620F00700854618B020B554
:1000E00000F024F8BDE820404FF000064FF0000774
:1000F0004FF000084FF0000B21F00701AC46ACE8D0
:10010000C009ACE8C009ACE8C009ACE8C0098D463C
:10011000704710B50446AFF300802046BDE810409C
:10012000FFF7B9BF004870470C00002000B54FF042
:10013000160085B0694601AA0A60ABBE0198002886
:1001400002BF0548C01D20F007000399029A049BD6
:1001500005B000BD0900000000000000704700006D
:1001600001491820ABBEFEE72600020001B500BF22
:100170000098411E00910028FAD108BD044900BF33
:10018000086800F020000028FAD048687047000096
:100190000038014000F0A6F80120FFF7E7FF31200A
:1001A00000F066F8302000F063F8302000F060F8CE
:1001B000612000F05DF8732000F05AF86B2000F029
:1001C00057F80A2000F054F80D2000F051F80D49BE
:1001D0000DA000F03DF8114911A000F039F80948D0
:1001E000007800F045F8422000F042F809E0FFF7FF
:1001F000C5FFC4B2204600F03BF8611CC8B200F055
:1002000037F8F4E700000020675F436861722773E6
:10021000206164647220203D200000003403000847
:10022000675F436861723227732061646472203DA6
:100230002000000070B503460C4603E00D78057001
:10024000491C401C151EA2F10102F7D170BD00002F
:1002500070B505460C46284600F038F8204600F0F8
:1002600013F802A000F032F870BD00000D0A000083
:10027000044900BF0A6802F08002002AFAD04860F0
:10028000704700000038014070B506460EA000F02F
:100290001DF8072514E0A80026FA00F000F00F046E
:1002A000002C07DB092C05DC04F13001C8B2FFF794
:1002B000DFFF04E004F13701C8B2FFF7D9FF6D1E7C
:1002C000002DE8DA70BD00003078000010B504465B
:1002D00003E02078FFF7CCFF641C20780028F8D1D9
:1002E00010BD000010491148026844F204031A438B
:1002F00002600F48026822F0F0020260026842F0D9
:1003000090020260026822F470620260026842F4A5
:100310008062026045228A6042F20C02CA600A6969
:1003200022F440520A617047003801401810024020
:1003300004080140420000005803000800000020AB
:100340000C00000044000008640300080C000020BA
:100350006000000060000008410000000000000094
:040360000000000099
:0400000508000009E6
:00000001FF
