:020000040800F2
:100000000000000041000008000000003501000869
:100010000000000000000000730000080000000065
:100020000000000000000000000000005501000872
:1000300000000000000000000000000000000000C0
:10004000DFF834D000F094F800F01CFA00F0B4F8B7
:100050004FF000004FF011314FF022324FF03333A8
:100060004FF0443C4FF0553EFFFFFFFF01DF0348D8
:100070008047684600F0A8B800000120D5020008BB
:1000800010B5203AC0F00B80B1E81850203AA0E833
:100090001850B1E81850A0E81850BFF4F5AF5FEA67
:1000A000027C24BFB1E81850A0E8185044BF18C91A
:1000B00018C0BDE810405FEA827C24BF51F8043BC1
:1000C00040F8043B08BF7047D20728BF31F8023B15
:1000D00048BF11F8012B28BF20F8023B48BF00F8A9
:1000E000012B70474FF0000200B513469446964628
:1000F000203922BFA0E80C50A0E80C50B1F120013B
:10010000BFF4F7AF090728BFA0E80C5048BF0CC0E8
:100110005DF804EB890028BF40F8042B08BF704746
:1001200048BF20F8022B11F0804F18BF00F8012BB8
:100130007047000002A000F099F900BFFEE7000040
:10014000486172644661756C745F48616E646C6589
:10015000720A0D0010B502A000F088F910BD000071
:100160005356435F48616E646C65720A0D0000006F
:1001700010B509480949884202D0094AFFF780FFB3
:1001800008480949884202D0084AFFF779FF084920
:100190000848FFF7A7FF10BD000000080000000896
:1001A000D804000000000020D8040008040000006B
:1001B00058000000040000200248416A41F48021F8
:1001C0004162704700ED00E070B50446144D15A083
:1001D00000F04CF919A0216800F00AF919A0616833
:1001E00000F006F919A0A16800F002F919A0E16871
:1001F00000F0FEF819A0216900F0FAF819A0616971
:1002000000F0F6F819A0A16900F0F2F819A0E16970
:1002100000F0EEF8A86AA862A069001DA06170BD98
:1002200000ED00E055736167654661756C745F4869
:10023000616E646C65720A0D00000000523020206F
:100240003D200000523120203D200000523220206D
:100250003D200000523320203D200000523132204A
:100260003D2000004C5220203D2000005043202023
:100270003D200000785053523D20000001B500BFE2
:100280000098411E00910028FAD108BD044900BF22
:10029000086800F020000028FAD048687047000085
:1002A0000038014070B503460C4603E025781D7008
:1002B000641C5B1C151EA2F10102F7D170BD30B5A4
:1002C000034601E019705B1C141EA2F10102F9D172
:1002D00030BD0000244D0120FFF7D0FF312000F099
:1002E00097F8302000F094F8302000F091F8612069
:1002F00000F08EF8732000F08BF86B2000F088F887
:100300000A2000F085F80D2000F082F87B2117A06C
:10031000A8471C491CA000F06BF8204920A000F061
:1003200067F82448016824A000F062F826480178A4
:1003300026A000F05DF82948016829A000F058F8CF
:100340001048007800F064F8422000F061F809E0FD
:10035000FFF79CFFC4B2204600F05AF8611CC8B2F7
:1003600000F056F8F4E70000F103000874657374B8
:1003700020666F7220746578742072656C6F63619B
:100380007465200000000020675F43686172277376
:10039000206164647220203D20000000D404000825
:1003A000675F436861723227732061646472203D25
:1003B0002000000004000020675F415B305D277370
:1003C0002076616C203D200010000020675F425BBA
:1003D000305D27732076616C203D20001C000020DA
:1003E000735F435B305D27732076616C203D200096
:1003F00070B505460C46284600F038F8204600F057
:1004000013F802A000F032F870BD00000D0A0000E1
:10041000044900BF0A6802F08002002AFAD048604E
:10042000704700000038014070B506460EA000F08D
:100430001DF8072514E0A80026FA00F000F00F04CC
:10044000002C07DB092C05DC04F13001C8B2FFF7F2
:10045000DFFF04E004F13701C8B2FFF7D9FF6D1EDA
:10046000002DE8DA70BD00003078000010B50446B9
:1004700003E02078FFF7CCFF641C20780028F8D137
:1004800010BD000010491148026844F204031A43E9
:1004900002600F48026822F0F0020260026842F037
:1004A00090020260026822F470620260026842F404
:1004B0008062026045228A6042F20C02CA600A69C8
:1004C00022F440520A61704700380140181002407F
:0C04D00004080140420000004100000050
:0400000500000000F7
:00000001FF
