


ARM Macro Assembler    Page 1 


    1 00000000         
    2 00000000                 PRESERVE8
    3 00000000                 THUMB
    4 00000000         
    5 00000000         
    6 00000000         ; Vector Table Mapped to Address 0 at Reset
    7 00000000                 AREA             RESET, DATA, READONLY
    8 00000000                 EXPORT           __Vectors
    9 00000000         
   10 00000000         
   11 00000000 00000000 
                       __Vectors
                               DCD              0
   12 00000004 00000000        DCD              Reset_Handler ; Reset Handler
   13 00000008         
   14 00000008                 AREA             |.text|, CODE, READONLY
   15 00000000         
   16 00000000         ; Reset handler
   17 00000000         Reset_Handler
                               PROC
   18 00000000                 EXPORT           Reset_Handler             [WEAK
]
   19 00000000                 IMPORT           main
   20 00000000                 IMPORT           |Image$$RW_IRAM1$$Base|
   21 00000000                 IMPORT           |Image$$RW_IRAM1$$Length|
   22 00000000                 IMPORT           |Load$$RW_IRAM1$$Base|
   23 00000000                 IMPORT           |Image$$RW_IRAM1$$ZI$$Base|
   24 00000000                 IMPORT           |Image$$RW_IRAM1$$ZI$$Length|
   25 00000000                 IMPORT           memcpy
   26 00000000                 IMPORT           memset
   27 00000000         
   28 00000000 F8DF D01C       LDR              SP, =(0x20000000+0x10000)
   29 00000004         
   30 00000004         ; relocate data section
   31 00000004 4807            LDR              R0, = |Image$$RW_IRAM1$$Base| 
                                                            ; DEST
   32 00000006 4908            LDR              R1, = |Load$$RW_IRAM1$$Base| 
                                                            ; SORUCE
   33 00000008 4A08            LDR              R2, = |Image$$RW_IRAM1$$Length|
 
                                                            ; LENGTH
   34 0000000A F7FF FFFE       BL               memcpy
   35 0000000E         
   36 0000000E         ; clear bss/zi
   37 0000000E 4808            LDR              R0, = |Image$$RW_IRAM1$$ZI$$Bas
e| 
                                                            ; DEST
   38 00000010 F04F 0100       MOV              R1, #0      ; VAL
   39 00000014 4A07            LDR              R2, = |Image$$RW_IRAM1$$ZI$$Len
gth| 
                                                            ; LENGTH
   40 00000016 F7FF FFFE       BL               memset
   41 0000001A         
   42 0000001A F7FF FFFE       BL               main
   43 0000001E         
   44 0000001E                 ENDP
   45 0000001E         
   46 0000001E                 END
              00 00 20010000 



ARM Macro Assembler    Page 2 


              00000000 
              00000000 
              00000000 
              00000000 
              00000000 
Command Line: --debug --xref --diag_suppress=9931 --cpu=Cortex-M3 --apcs=interw
ork --depend=.\objects\start.d -o.\objects\start.o -I.\RTE\_led_c -IC:\Users\th
isway_diy\AppData\Local\Arm\Packs\Keil\STM32F1xx_DFP\2.3.0\Device\Include -IC:\
Keil_v5\ARM\CMSIS\Include --predefine="__EVAL SETA 1" --predefine="__UVISION_VE
RSION SETA 527" --predefine="STM32F10X_HD SETA 1" --list=.\listings\start.lst s
tart.s



ARM Macro Assembler    Page 1 Alphabetic symbol ordering
Relocatable symbols

RESET 00000000

Symbol: RESET
   Definitions
      At line 7 in file start.s
   Uses
      None
Comment: RESET unused
__Vectors 00000000

Symbol: __Vectors
   Definitions
      At line 11 in file start.s
   Uses
      At line 8 in file start.s
Comment: __Vectors used once
2 symbols



ARM Macro Assembler    Page 1 Alphabetic symbol ordering
Relocatable symbols

.text 00000000

Symbol: .text
   Definitions
      At line 14 in file start.s
   Uses
      None
Comment: .text unused
Reset_Handler 00000000

Symbol: Reset_Handler
   Definitions
      At line 17 in file start.s
   Uses
      At line 12 in file start.s
      At line 18 in file start.s

2 symbols



ARM Macro Assembler    Page 1 Alphabetic symbol ordering
External symbols

Image$$RW_IRAM1$$Base 00000000

Symbol: Image$$RW_IRAM1$$Base
   Definitions
      At line 20 in file start.s
   Uses
      At line 31 in file start.s
Comment: Image$$RW_IRAM1$$Base used once
Image$$RW_IRAM1$$Length 00000000

Symbol: Image$$RW_IRAM1$$Length
   Definitions
      At line 21 in file start.s
   Uses
      At line 33 in file start.s
Comment: Image$$RW_IRAM1$$Length used once
Image$$RW_IRAM1$$ZI$$Base 00000000

Symbol: Image$$RW_IRAM1$$ZI$$Base
   Definitions
      At line 23 in file start.s
   Uses
      At line 37 in file start.s
Comment: Image$$RW_IRAM1$$ZI$$Base used once
Image$$RW_IRAM1$$ZI$$Length 00000000

Symbol: Image$$RW_IRAM1$$ZI$$Length
   Definitions
      At line 24 in file start.s
   Uses
      At line 39 in file start.s
Comment: Image$$RW_IRAM1$$ZI$$Length used once
Load$$RW_IRAM1$$Base 00000000

Symbol: Load$$RW_IRAM1$$Base
   Definitions
      At line 22 in file start.s
   Uses
      At line 32 in file start.s
Comment: Load$$RW_IRAM1$$Base used once
main 00000000

Symbol: main
   Definitions
      At line 19 in file start.s
   Uses
      At line 42 in file start.s
Comment: main used once
memcpy 00000000

Symbol: memcpy
   Definitions
      At line 25 in file start.s
   Uses
      At line 34 in file start.s
Comment: memcpy used once
memset 00000000

Symbol: memset



ARM Macro Assembler    Page 2 Alphabetic symbol ordering
External symbols

   Definitions
      At line 26 in file start.s
   Uses
      At line 40 in file start.s
Comment: memset used once
8 symbols
347 symbols in table
